:020000040800F2
:1000000000280020210C0008A10B0008A30B000809
:10001000A50B0008A70B0008A90B000800000000B2
:10002000000000000000000000000000AB0B000812
:10003000AD0B000800000000AF0B0008B10B00087A
:10004000690C0008690C0008690C0008690C0008BC
:10005000690C0008690C0008690C0008690C0008AC
:10006000690C0008690C0008690C0008690C00089C
:10007000690C0008690C0008690C0008690C00088C
:10008000690C0008690C0008690C0008690C00087C
:10009000B50B0008C10B0008690C0008690C0008CA
:1000A000690C0008690C0008690C0008690C00085C
:1000B000C50B0008690C000800000000690C00086E
:1000C000690C00080000000000000000690C000836
:1000D00000000000D10B0008690C000800000000BF
:1000E000690C0008690C0008690C00080000000099
:1000F0000000000000000000000000000000000000
:0C01000000000000000000005FF808F1A3
:10010C0010B5054C237833B9044B13B10448AFF345
:10011C0000800123237010BD60000020000000004F
:10012C00802E000808B5034B1BB103490348AFF3FD
:10013C00008008BD0000000064000020802E000834
:10014C00034613F8012B002AFBD1181A013870470B
:10015C004FF0FF0C1CEAD0521EBF1CEAD15392EA9E
:10016C000C0F93EA0C0F6FD01A4480EA010C40027A
:10017C0018BF5FEA41211ED04FF0006343EA5010D4
:10018C0043EA5111A0FB01310CF00040B1F5000F16
:10019C003EBF490041EAD3715B0040EA010062F1C5
:1001AC007F02FD2A1DD8B3F1004F40EBC25008BFAF
:1001BC0020F00100704790F0000F0CF0004C08BFCD
:1001CC0049024CEA502040EA51207F3AC2BFD2F19A
:1001DC00FF0340EAC250704740F400004FF00003A8
:1001EC00013A5DDC12F1190FDCBF00F000407047E2
:1001FC00C2F10002410021FA02F1C2F1200200FA20
:10020C0002FC5FEA310040F1000053EA4C0308BFE6
:10021C0020EADC70704792F0000F00F0004C02BF37
:10022C00400010F4000F013AF9D040EA0C0093F0B2
:10023C00000F01F0004C02BF490011F4000F013B0C
:10024C00F9D041EA0C018FE70CEAD15392EA0C0F7A
:10025C0018BF93EA0C0F0AD030F0004C18BF31F0E5
:10026C00004CD8D180EA010000F00040704790F0BB
:10027C00000F17BF90F0004F084691F0000F91F05F
:10028C00004F14D092EA0C0F01D142020FD193EA25
:10029C000C0F03D14B0218BF084608D180EA0100AD
:1002AC0000F0004040F0FE4040F40000704740F089
:1002BC00FE4040F44000704780F0004002E000BF78
:1002CC0081F0004142001FBF5FEA410392EA030F35
:1002DC007FEA226C7FEA236C6AD04FEA1262D2EB7F
:1002EC001363C1BFD218414048404140B8BF5B4284
:1002FC00192B88BF704710F0004F40F4000020F01D
:10030C007F4018BF404211F0004F41F4000121F032
:10031C007F4118BF494292EA030F3FD0A2F101027C
:10032C0041FA03FC10EB0C00C3F1200301FA03F1BA
:10033C0000F0004302D5494260EB4000B0F5000FDD
:10034C0013D3B0F1807F06D340084FEA310102F19C
:10035C000102FE2A51D2B1F1004F40EBC25008BF4E
:10036C0020F0010040EA03007047490040EB000018
:10037C00013A28BFB0F5000FEDD2B0FA80FCACF119
:10038C00080CB2EB0C0200FA0CF0AABF00EBC25046
:10039C0052421843BCBFD0401843704792F0000F34
:1003AC0081F4000106BF80F400000132013BB5E787
:1003BC004FEA41037FEA226C18BF7FEA236C21D0FD
:1003CC0092EA030F04D092F0000F08BF0846704762
:1003DC0090EA010F1CBF0020704712F07F4F04D130
:1003EC00400028BF40F00040704712F100723CBF43
:1003FC0000F50000704700F0004343F0FE4040F46D
:10040C00000070477FEA226216BF08467FEA23632A
:10041C000146420206BF5FEA412390EA010F40F415
:10042C00800070474FF0000304E000BF10F0004361
:10043C0048BF40425FEA000C08BF704743F0964348
:10044C0001464FF000001CE050EA010208BF704763
:10045C004FF000030AE000BF50EA010208BF7047EA
:10046C0011F0004302D5404261EB41015FEA010CFF
:10047C0002BF84460146002043F0B64308BFA3F1F7
:10048C008053A3F50003BCFA8CF2083AA3EBC253D9
:10049C0010DB01FA02FC634400FA02FCC2F12002F8
:1004AC00BCF1004F20FA02F243EB020008BF20F02F
:1004BC000100704702F1200201FA02FCC2F1200295
:1004CC0050EA4C0021FA02F243EB020008BF20EA8A
:1004DC00DC7070474FEA4002B2F1FE4F0FD34FF081
:1004EC009E03B3EB12620DD94FEA002343F0004395
:1004FC0010F0004F23FA02F018BF404270474FF043
:10050C000000704712F1610F01D1420205D110F0C9
:10051C00004008BF6FF0004070474FF0000070477C
:10052C0010B590B01422002108A802F013F8142280
:10053C00002101A802F00EF802244FF480330122AE
:10054C00CDE90D43CDE906234FF4E01306A80A923A
:10055C000F9301F075F808B172B6FEE70F23CDE9E1
:10056C0001344FF480630390CDE90430214601A897
:10057C0001F028FA08B172B6FEE710B010BD000009
:10058C002DE9F04F00244FF400574FF001084FF0C5
:10059C0002099BB000F088FBFFF7C2FF102200217C
:1005AC0010A801F0D7FF4B4B4FF400519A694A4801
:1005BC0042F010029A619A69484D02F010020B92B7
:1005CC000B9A9A6942F020029A619A6902F0200211
:1005DC000C920C9A9A6942F004029A619B6900226F
:1005EC0003F004030D930D9B01F01CF83A4810A97D
:1005FC00CDE91249CDE9107800F042FF14233848B8
:10060C00C5E90244C5E900034FF45023C5E904349D
:10061C004FF480732846AC83AB6100F069FB044651
:10062C0008B172B6FEE70A23CDE91070CDE91403C8
:10063C00CDE91270CDE91608199010A92846CDF80D
:10064C00608000F0D0FB4FF4E133264E2649304653
:10065C00C6E900130C23C6E90244C6E9053434612B
:10066C00F46101F003FD044608B172B6FEE71022F6
:10067C00014610A801F06EFF40F2E7334FF08042C4
:10068C00DFF868A0CDE90E44CAE9002340F60F63F9
:10069C00CAE9033480235046CAF80840CAF8183017
:1006AC0001F04AFB08B172B6FEE74FF48053504696
:1006BC0010A9109301F076FB08B172B6FEE7CDE9F4
:1006CC000E000EA9504601F007FC044680B172B62C
:1006DC00FEE700BF0010024000100140180200208D
:1006EC00006400408801002000380140D001002047
:1006FC00504601F023FA284600F0E5FB494628460F
:10070C0000F0D1FC08227D4B7D491A6140F20312A6
:10071C001A607022C3E90144DC601C75794B3046C9
:10072C001A600922C3E901441C61DC601C7501F0EC
:10073C00E0FE42463946744800F074FFDFF8CC8185
:10074C00DFF8CC91DFF8CCA1734D2B78ABB16C4CAE
:10075C00724A236869491360636871485360714B2E
:10076C0000F0DCFB002110222046297001F0F2FE83
:10077C00092221466C4801F0BCFE6C4C6C4E23786F
:10078C00002B2CD06B4B6C48D9791A78069199793F
:10079C0005915979049119790391D9780291997835
:1007AC0001915B786549009302F0020302F00102AB
:1007BC0001F0B0FE6048FFF7C3FC4FF0FF3382B28C
:1007CC005D49594801F081FC5B48FFF7B9FC0021F9
:1007DC000246594801F0BEFE002323703380DFF837
:1007EC0060B19BF80030002B69D0564F3B78002B42
:1007FC0065D0554B554C1D68B5F90200FFF716FE38
:10080C004146FFF7A5FC4946FFF75AFDFFF762FE8C
:10081C000990B5F90000FFF709FE5146FFF798FC67
:10082C004B49FFF74DFDFFF755FE0890E088FFF7A9
:10083C00FDFDFFF74FFE0590A088FFF7F7FDFFF7D2
:10084C0049FE04906088FFF7F1FDFFF743FE03902B
:10085C002088FFF7EBFDFFF73DFE0290B5F906107F
:10086C000191B5F90400FFF7E1FD3A49FFF770FC7F
:10087C003949FFF725FDFFF72DFEDDE90823374940
:10088C0000902D4801F046FE2B48FFF759FC4FF025
:10089C00FF3382B22849244801F017FC2648FFF7A1
:1008AC004FFC00210246244801F054FE00234FF473
:1008BC00005115488BF800303B7000F0B8FE284C06
:1008CC0023783BB1174B274A0E49154800F026FBFD
:1008DC00002323704EF6602332889A427FF634AFA1
:1008EC00BFF34F8F2049214BCA6802F4E0621343D7
:1008FC00CB60BFF34F8F00BFFDE700BF6801002046
:10090C009E0000205001002000100140CA54413DBF
:10091C00142EFE4238F8423D8001002026010020B2
:10092C0018020020300100208801002084010020E2
:10093C007C00002086000020DE000020982E00089D
:10094C008301002082010020000000208E00002086
:10095C0085EBFC421283403DCD4CF942AE2E000893
:10096C00810100207E00002000ED00E00400FA056B
:10097C0038B5144D144C2A462346002100F017FBC1
:10098C002B68B3F5997F08D1104A2368136063680C
:10099C0053600F4B01221A7038BD40F27112934212
:1009AC0006D10C4A23681360636853600A4BF1E765
:1009BC00B3F5B97FF0D1094A2368136063685360BB
:1009CC00074BE7E7340100201E01002086000020C1
:1009DC008401002096000020830100208E0000205E
:1009EC00820100200122014B1A7070478001002007
:1009FC000122014B1A707047810100200E4B82B00E
:100A0C009A6942F001029A619A6902F0010200921D
:100A1C00009ADA6942F08052DA61DB69074A03F026
:100A2C0080530193019B536823F0E06343F0007300
:100A3C00536002B0704700BF00100240000001403C
:100A4C0010B5044686B01022002102A801F082FDE8
:100A5C0022681D4B9A4235D103F5D633DA691B480F
:100A6C0042F00072DA61DA6902A902F000720092B7
:100A7C00009A9A6942F004029A619B6903F004039C
:100A8C000193019B4FF40063029300F0F9FC4FF4C7
:100A9C0080520223CDE9022303230C4802A90593BB
:100AAC0000F0EEFC00221420114600F031FC142062
:100ABC0000F05EFC00221520114600F029FC1520E8
:100ACC0000F056FC06B010BD006400400008014068
:100ADC00036807B5B3F1804F15D103F50433DA6918
:100AEC001C2042F00102DA610022DB69114603F09E
:100AFC0001030193019B00F00BFC1C2003B05DF87B
:100B0C0004EB00F035BC03B05DF804FB10B50446F3
:100B1C0086B01022002102A801F01CFD22681B4B9C
:100B2C009A4230D103F558439A69194842F48042ED
:100B3C009A619A6902A902F480420092009A9A6919
:100B4C00002442F004029A619B694FF4007203F096
:100B5C0004030193019B0223CDE902230323059394
:100B6C0000F08EFC4FF48063094802A9CDE90234F1
:100B7C00049400F085FC25202246214600F0C8FB99
:100B8C00252000F0F5FB06B010BD00BF0038014079
:100B9C0000080140FEE7FEE7FEE7FEE7FEE77047D0
:100BAC007047704700F092B8014800F099BA00BF46
:100BBC0018020020FFF7F8BF014800F0E9BF00BFA2
:100BCC00D0010020014801F031BB00BF880100209A
:100BDC000B4A0346116810B509B90A49116010682F
:100BEC0009490A4C0344091B8B4206D901F0BAFC93
:100BFC000C2303604FF0FF3010BD1360FCE700BF07
:100C0C004002002090030020002800200004000077
:100C1C00704700000C480D490D4A002302E0D458DF
:100C2C00C4500433C4188C42F9D30A4A0A4C00232A
:100C3C0001E013600432A242FBD3FFF7E9FF01F09D
:100C4C0097FCFFF79DFC704700000020600000201F
:100C5C00442F00086000002090030020FEE70000F5
:100C6C0038B50E4B05461A784FF47A73B3FBF2F392
:100C7C000B4A1068B0FBF3F000F088FB044658B93F
:100C8C000F2D09D8024629464FF0FF3000F040FBEB
:100C9C002046044B1D6038BD0120FCE708000020F5
:100CAC00040000200C000020074A08B5136803203C
:100CBC0043F01003136000F019FB0F20FFF7D0FF77
:100CCC00FFF79CFE002008BD00200240034A044BA5
:100CDC0011681B780B441360704700BF440200205E
:100CEC0008000020014B1868704700BF4402002028
:100CFC0038B5044600286ED090F820300BB9FFF7B9
:100D0C009FFE2268136843F001031360FFF7EAFFAC
:100D1C00054623685A68D10751D51A6822F0020299
:100D2C001A60FFF7DFFF054623685A68920754D410
:100D3C00227E0020012A1A680CBF42F0800222F0A9
:100D4C0080021A60627E012A1A680CBF42F04002CF
:100D5C0022F040021A60A27E012A1A680CBF42F0EF
:100D6C00200222F020021A60E27E012A1A680CBFCF
:100D7C0022F0100242F010021A60227F012A1A6837
:100D8C000CBF42F0080222F008021A60627F012AAE
:100D9C001A680CBF42F0040222F004021A60D4E973
:100DAC0002210A4321690A4361690A4361680139D6
:100DBC000A43DA610123606284F820300CE0FFF70B
:100DCC0091FF401B0A28A4D9636A43F40033636281
:100DDC00052384F82030012038BDFFF783FF401B2A
:100DEC000A28A1D9F0E770B590F820200368013AE1
:100DFC00012A62D80120D3F8002242F00102C3F884
:100E0C0000224A69D3F81C5202F01F04A04025EAC4
:100E1C000005C3F81C52CD69C44395BBD3F80C52E2
:100E2C00CE682540C3F80C528D8803EBC20245EA0C
:100E3C000645C2F840528E680D8845EA0645C2F850
:100E4C0044528A697ABBD3F804222240C3F80422A4
:100E5C000A6962BBD3F814221440C3F814420A6A1C
:100E6C00012A04BFD3F81C2202434FF0000008BF34
:100E7C00C3F81C22D3F8002222F00102C3F800228E
:100E8C0070BD012DDDD1D3F80C520E680543C3F8AB
:100E9C000C528D8803EBC20245EA0645C2F840525B
:100EAC008E688D89C9E7D3F804220243CEE7D3F8C4
:100EBC0014220243C3F81422D1E7436A43F480237B
:100ECC0043620120DCE738B590F820300446012B52
:100EDC001FD10223026880F82030136823F001032D
:100EEC001360FFF7FFFE05462368586810F00100F9
:100EFC0001D1606238BDFFF7F5FE401B0A28F3D91B
:100F0C00636A43F400336362052384F820300120C4
:100F1C00F0E7436A43F400234362F8E7F0B590F836
:100F2C0020500468013D012DA6683CD816F0E05F06
:100F3C0033D00125C6F3016085401D60D1E902570D
:100F4C0000F1180315BB0D681B0147EA4557E75024
:100F5C0004EB0013050100200E692C44C3F88461D6
:100F6C00097D012902BFD3F8841141F48071C3F8C3
:100F7C0084115168C4F88C111268C4F88821D3F814
:100F8C00802142F00102C3F88021F0BD4E683D4340
:100F9C0045EAC6051B01E550DAE7436A43F4001342
:100FAC0043620120F1E7436A43F48023F8E7F0B58C
:100FBC0090F82040013C012C71D8066841B9F468C6
:100FCC00A40707D1436A43F4001343620120F0BD28
:100FDC003469F5E706EB0115D5F8B0710C0107F093
:100FEC0004079760002F50D1D5F8B0717F0D1760B2
:100FFC00D5F8B071264407F00207D760D5F8B47164
:10100C003F074EBF0827D5F8B47107F00F071761DB
:10101C00D5F8B471D5F8B451C7F307272D0C9761E7
:10102C005561D6F8B8211A7002682244D2F8B8215A
:10103C00120A5A7002682244D2F8B821120C9A7023
:10104C0002682244D2F8B821120EDA7002682244E7
:10105C00D2F8BC211A7102682244D2F8BC21120ABF
:10106C005A7102682244D2F8BC21120C9A7102689F
:10107C002244D2F8BC21120EDA71036851B9DA6835
:10108C0042F02002DA600020A1E7D5F8B071FF0829
:10109C005760ADE71A6942F020021A61F3E7436A20
:1010AC0043F4802391E790F82030013B012B05D8C5
:1010BC00026800205369194351617047436A43F435
:1010CC008023436201207047704770477047704718
:1010DC00704770477047704770477047704770474C
:1010EC002DE9F84F036805465E69D3F8049016F0B5
:1010FC000104D3F80880D3F80CB0D3F810A09F6982
:10110C0027D018F0010F07D0012218F0020F9A60B7
:10111C0000F0A680FFF7D8FF002418F4807F0AD0D7
:10112C004FF480722B6818F4007F9A6000F0A7804F
:10113C002846FFF7CAFF18F4803F0AD04FF48032DC
:10114C002B6818F4003F9A6000F0A9802846FFF73E
:10115C00BDFF300707D51BF0100F1FBF10222B68E7
:10116C0044F40074DA60710708D51BF0080F05D041
:10117C0008222B682846DA60FFF7ACFFB20706D5C9
:10118C002B68DB689B0702D02846FFF7F1FB700643
:10119C0007D51AF0100F1FBF10222B6844F480647F
:1011AC001A61B10608D51AF0080F05D008222B6871
:1011BC0028461A61FFF790FFF20606D52B681B69CB
:1011CC009B0702D02846FFF786FFB00308D519F01D
:1011DC00100F05D010222B6828465A60FFF77DFFB0
:1011EC00F10308D519F0080F05D008222B68284602
:1011FC005A60FFF773FF320429D519F0040F2A68DF
:10120C0023D0F30503D5F80748BF44F00104B1051A
:10121C0003D5BB0748BF44F00204700503D579071A
:10122C0048BF44F0040433050FD517F070030CD0FD
:10123C00402B54D043D8202B4BD0302B4CD0102BE0
:10124C0044D0936923F070039361042353602CB151
:10125C006B6A284623436B62FFF741FFBDE8F88FAA
:10126C0018F0040F05D118F0080F05D1FFF72FFF68
:10127C0052E74FF4006450E74FF480544DE718F4F4
:10128C00806F02D044F4005455E718F4006F02D07C
:10129C0044F480444FE72846FFF71AFF4BE718F455
:1012AC00802F02D044F4004453E718F4002F02D0EE
:1012BC0044F480344DE72846FFF70BFF49E7502BE9
:1012CC0010D0602BBDD144F48074BAE744F008040C
:1012DC00B7E744F01004B4E744F02004B1E744F05D
:1012EC004004AEE744F08004ABE70000074903027A
:1012FC00CA6803F4E06322F4E0621204120C134394
:10130C0043F0BF6343F40033CB60704700ED00E063
:10131C00154B30B5DC68C4F30224C4F10703251D5A
:10132C00042B28BF0423062D4FF0FF3594BF002457
:10133C00033C05FA03F321EA0303A54022EA050264
:10134C00A340002843EA0203ACBF00F16040074A07
:10135C004FEA0313DBB2ABBF00F5614000F00F00A6
:10136C0080F80033135430BD00ED00E014ED00E0C4
:10137C00002807DB01234109034A00F01F008340CA
:10138C0042F82130704700BF00E100E00138B0F1B5
:10139C00807F0BD24FF0E023F021054A586182F890
:1013AC0023100020072298611A61704701207047B2
:1013BC0000ED00E090F821200346022A06D004221A
:1013CC0082630120002283F8202070470268C06BE2
:1013DC00116821F00E011160116821F001011160FA
:1013EC0001211A6C01FA02F24260002083F82110EC
:1013FC00E8E7000008B590F82130022B03D0042355
:10140C008363012008BD03681A6822F00E021A607B
:10141C001A6822F001021A60174A93421FD0143244
:10142C0093421ED0143293421DD0143293421DD0DD
:10143C00143293421DD01432934214BF4FF0807378
:10144C004FF480130D4A5360012380F821300023A0
:10145C0080F82030436B03B198470020D2E701237A
:10146C00F0E71023EEE74FF48073EBE74FF4805373
:10147C00E8E74FF48033E5E7080002400000024043
:10148C002DE9F74F00221646DFF87CC15F4BDFF8E1
:10149C0080E1DFF880810D6835FA06F402D103B0E3
:1014AC00BDE8F08F0127B74005EA070437EA0505C8
:1014BC0075D14D68032D06D8013D022D7ED8DFE88D
:1014CC0005F08F949A00122D00F0928069D8112D9E
:1014DC0000F08880FF2C98BF81464FF00F0B88BF1F
:1014EC0000F104094FEA8605D9F8007088BF203D49
:1014FC000BFA05FA27EA0A0702FA05F52F43C9F891
:10150C000070D1F8049019F0805F48D0DCF81850C6
:10151C0026F0030745F00105CCF81850DCF81850FC
:10152C0007F1804705F00105019507F5803706F0B6
:10153C00030A019D4FEA8A0ABD680BFA0AFB25EAE9
:10154C000B0B354DA8425AD005F58065A84258D0F2
:10155C0005F58065A84214BF0325022505FA0AF596
:10156C0045EA0B05BD609D6819F4801F14BF254327
:10157C00A5439D60DD6819F4001F14BF2543A543E6
:10158C00DD605D6819F4003F14BF2543A5435D6021
:10159C001D6819F4803F14BF2543A5431D60013617
:1015AC0079E7DFF878904D4508D011D8A9F5801966
:1015BC004D4503D0754501D045458BD18A68E2B1C4
:1015CC00012A08BF07614FF0080218BF476181E785
:1015DC00DFF84C904D45F1D009F580394D45ECE7DD
:1015EC00CA6877E7CA68043274E7CA68083271E7D8
:1015FC00CA680C326EE700226CE704226AE7002509
:10160C00ACE70125AAE700BF00100240000401402E
:10161C0000002110000011100008014000002210F1
:10162C00000031100AB1016170470904FBE7C3687F
:10163C0001EA030221EA030141EA02410161704718
:10164C002DE9F341054638B30368DB0710D42B684A
:10165C009F075ED42B68190700F195802B685A07F9
:10166C0000F1C180EB69002B40F02C81002029E0B7
:10167C00904C636803F00C03042B07D0636803F0F1
:10168C000C03082B0AD16368DE0307D523689C037F
:10169C00DDD56B68002BDAD1012013E06B68B3F554
:1016AC00803F12D1236843F480332360FFF71AFB89
:1016BC00064623689803CAD4FFF714FB801B6428E2
:1016CC00F7D9032002B0BDE8F0819BB9236823F45D
:1016DC0080332360236823F480232360FFF702FB0D
:1016EC00064623689903B2D5FFF7FCFA801B6428E1
:1016FC00F7D9E6E7B3F5A02F236803D143F4802391
:10170C002360CFE723F480332360236823F4802302
:10171C00CBE7684C636813F00C0F07D0636803F0D9
:10172C000C03082B10D16368DA030DD423689B07D4
:10173C0002D52B69012BAFD123686A6923F0F8031A
:10174C0043EAC203236085E72A695B4B6AB1012235
:10175C001A60FFF7C7FA064623689F07ECD4FFF719
:10176C00C1FA801B0228F7D9ABE71A60FFF7BAFA67
:10177C000646236898077FF56DAFFFF7B3FA801B19
:10178C000228F6D99DE7AA694A4E4B4BE2B10122D9
:10179C00C3F88024FFF7A6FA0446736A9B070DD59D
:1017AC004FF4FA52454B1B68B3FBF2F3019300BFA5
:1017BC00019B5A1E0192002BF9D14FE7FFF792FAC9
:1017CC00001B0228E9D97CE7C3F88024FFF78AFACA
:1017DC000446736A9F077FF541AFFFF783FA001B3E
:1017EC000228F6D96DE7334CE369D80024D40127DD
:1017FC00E36943F08053E361E36903F080530093A2
:10180C00009B2F4E3368D90518D5EB68012B26D1D8
:10181C00236A43F001032362FFF764FA41F288382C
:10182C000646236A9B073FD5002F3FF41BAFE369A5
:10183C0023F08053E36115E70027E2E7336843F4B4
:10184C0080733360FFF74EFA80463368DA05DCD4D8
:10185C00FFF748FAA0EB08006428F6D931E7ABB9DA
:10186C00236A41F2883823F001032362236A23F0B0
:10187C0004032362FFF736FA0646236A9807D3D58A
:10188C00FFF730FA801B4045F7D91AE7052B236A7E
:10189C0003D143F004032362BAE723F0010323626C
:1018AC00236A23F00403B6E7FFF71CFA801B4045BC
:1018BC00B7D906E7001002400000424204000020A5
:1018CC00007000402A4C626802F00C02082A3ED0DC
:1018DC000022022B274B1A662CD1FFF703FA06467F
:1018EC002368990120D42B6AB3F5803F05D1626837
:1018FC00A96822F400320A436260696A62680B4389
:10190C0022F474121343012263601A4B1A66FFF718
:10191C00E9F9054623689A013FF5A8AEFFF7E2F90D
:10192C00401B0228F6D9CCE6FFF7DCF9801B022815
:10193C00D6D9C6E6FFF7D6F9054623689B017FF595
:10194C0095AEFFF7CFF9401B0228F6D9B9E6012B6B
:10195C003FF4A2AE60682B6A00F480329A427FF4A6
:10196C009BAE6B6A00F47010C01A18BF0120A9E678
:10197C0000100240000042420D4A536803F00C0173
:10198C00082912D10B48C3F38341DB03405C09D512
:10199C005368094AC3F340435043084AD35CB0FB35
:1019AC00F3F07047064B584370470348704700BF2D
:1019BC0000100240F02E000800127A00EE2E0008F3
:1019CC0000093D002DE9F0410D46044610B90120F7
:1019DC00BDE8F081444A136803F007038B4228D317
:1019EC0021688E0730D4CA0743D43F4A136803F0EA
:1019FC000703AB4265D822683C4D12F0040F6CD142
:101A0C00130706D56B68226923F4605343EAC203BB
:101A1C006B60FFF7B1FF6B68354AC3F30313D35CFC
:101A2C00D840344B1860344B1868FFF719F9002074
:101A3C00CEE7136823F007030B431360136803F01E
:101A4C0007038B42C3D1CBE7284B11F0040F1EBF09
:101A5C005A6842F4E0625A60080742BF5A6842F47E
:101A6C0060525A605A68A06822F0F00202435A6031
:101A7C00B9E762681D4E012A33681AD113F4003F8E
:101A8C00A5D0736841F2883823F0030313437360C5
:101A9C00FFF728F907467368626803F00C03B3EB91
:101AAC00820FA2D0FFF71EF9C01B4045F3D90320CB
:101ABC008EE7022A02D113F0007FE1E713F0020F48
:101ACC00DEE7136823F007032B431360136803F05E
:101ADC000703AB427FF47BAF8DE76B68E16823F4BF
:101AEC00E0630B436B608BE7002002400010024068
:101AFC00DE2E0008040000200C000020044B054AD8
:101B0C005B68C3F30223D35C034A1068D840704768
:101B1C0000100240D62E000804000020044B054A99
:101B2C005B68C3F3C223D35C034A1068D840704788
:101B3C0000100240D62E00080400002090F83D3022
:101B4C00012B1CD1022380F83D300368DA6842F087
:101B5C000102DA600B4A934206D0B3F1804F03D0F6
:101B6C00A2F59432934204D19A6802F00702062A35
:101B7C0003D01A6842F001021A600020704701205D
:101B8C00704700BF002C014070477047704770478A
:101B9C00036810B51A69044691070ED5DA689207E6
:101BAC000BD56FF002021A61012202779B699B0729
:101BBC0077D0FFF7EAFF0023237723681A695007D1
:101BCC0010D5DA6851070DD56FF004021A610222A4
:101BDC0022779B69204613F4407F68D0FFF7D5FF2E
:101BEC000023237723681A6912070FD5DA681007C8
:101BFC000CD56FF008021A6104222277DB692046AB
:101C0C0099075AD0FFF7C1FF0023237723681A697D
:101C1C00D20610D5DA68D0060DD56FF010021A6115
:101C2C0008222277DB69204613F4407F4BD0FFF764
:101C3C00ACFF0023237723681A69D10708D5DA682B
:101C4C00D20705D56FF0010220461A61FEF7D0FECF
:101C5C0023681A69100608D5DA68110605D56FF0E5
:101C6C00800220461A6100F062F923681A69520654
:101C7C0008D5DA68500605D56FF0400220461A6187
:101C8C00FFF785FF23681A69910622D5DA68920658
:101C9C001FD56FF020022046BDE810401A6100F0FD
:101CAC0045B9FFF771FF2046FFF770FF83E7FFF799
:101CBC006BFF2046FFF76AFF92E7FFF765FF2046B0
:101CCC00FFF764FFA0E7FFF75FFF2046FFF75EFF1B
:101CDC00AFE710BD164A10B59042036805D0B0F1BD
:101CEC00804F02D0134CA04210D14C6823F07003EB
:101CFC00904243EA040305D0B0F1804F02D00D4A64
:101D0C00904203D1CA6823F4407313434A6923F009
:101D1C008003134303608B68C3620B688362044BBC
:101D2C00984204BF0B6903630123436110BD00BFDC
:101D3C00002C01400004004010B5044630B390F86C
:101D4C003D3003F0FF021BB980F83C20FEF7C0FECB
:101D5C000223206884F83D30211DFFF7BBFF0123CF
:101D6C00002084F8463084F83E3084F83F3084F804
:101D7C00403084F8413084F8423084F8433084F8A1
:101D8C00443084F8453084F83D3010BD0120FCE728
:101D9C0010B584680A4324F47F4442EA03222243A8
:101DAC00826010BD38B590F83C300446012B4FF0E2
:101DBC00020000F08E80012284F83D00206884F837
:101DCC003C20836823F47F4323F0770383600B6804
:101DDC00602B4FD032D8402B64D016D8202B0DD08E
:101DEC000AD833F0100109D0012384F83D300023C8
:101DFC0084F83C30104638BD302BF5D1826822F087
:101E0C007002134343F0070328E0502BECD14A68CF
:101E1C00CD68016A036A21F00A0123F00103036211
:101E2C0083690A4323F0F00343EA051383610262DA
:101E3C00836823F0700343F057030FE0B3F5805F22
:101E4C000DD0B3F5005F0CD0702BCDD1CB68D1E9A0
:101E5C000121FFF79DFF836843F077038360002225
:101E6C00C2E7CB68D1E90121FFF792FF836843F405
:101E7C008043F3E7036A026A4D6822F01002C968D6
:101E8C000262826923F0A00322F4704243EA051334
:101E9C0042EA013282610362836823F0700343F0EB
:101EAC006703DBE74A68CD68016A036A21F00A011F
:101EBC0023F00103036283690A4323F0F00343EA2E
:101ECC00051383610262836823F0700343F04703B8
:101EDC00C4E702468EE7000030B590F83C2003467C
:101EEC00012A4FF002001ED01A6883F83D00546896
:101EFC000D6824F070042C43906854600A4CA24284
:101F0C0006D0B2F1804F03D0A4F59434A24204D190
:101F1C00496820F08000014391600122002083F881
:101F2C003D2083F83C0030BD002C014070477047C9
:101F3C00026802F10C0353E8003F23F490730C3257
:101F4C0042E8003102680029F2D102F1140353E88F
:101F5C00003F23F0010302F1140C4CE8003100297E
:101F6C00F3D1036B012B0BD102F10C0353E8003FAF
:101F7C0023F0100302F10C0C4CE800310029F3D1D2
:101F8C00202380F8423000230363704710B50446C9
:101F9C000368C1681A6922F440520A431A618268C4
:101FAC000069D9680243606921F4B05121F00C0139
:101FBC0002430A43DA605A69A16922F440720A4367
:101FCC005A610E4A934215D1FFF7A8FD19234343DA
:101FDC00626820689200B3FBF2F36422B3FBF2F167
:101FEC0002FB11331B013233B3FBF2F303EB01138E
:101FFC00836010BDFFF782FDE8E700BF00380140A9
:10200C00F8B504460E4617461D462268136836EA94
:10201C00030301D1002028E06B1CF7D025B1FEF79B
:10202C0061FEC01B8542F0D2226802F10C0353E81A
:10203C00003F23F4D0730C3242E8003021680028B2
:10204C00F2D101F1140353E8003F23F0010301F135
:10205C00140040E80032002AF3D12023032084F836
:10206C00413084F8402084F84230F8BD10B5044665
:10207C0048B390F8413003F0FF021BB980F84020C0
:10208C00FEF744FD2423226884F84130D3682046AF
:10209C0023F40053D360FFF779FF236800201A69FB
:1020AC0022F490421A615A6922F02A025A61DA68C3
:1020BC0042F40052DA602023606484F8413084F8E2
:1020CC004230606310BD0120FCE72DE9F8439846CF
:1020DC0090F841300446202B0E4617463CD100297F
:1020EC003CD0002A3AD021230025456480F84130A9
:1020FC00FEF7F8FDA3688146B3F5805FA784E784FB
:10210C0003D123690BB935461E46E38C9BB253B9F8
:10211C0043464A4640212046FFF772FF50B9202320
:10212C0084F8413007E043464A4680212046FFF7B9
:10213C0067FF10B10320BDE8F88322684EB935F86B
:10214C00023BC3F308035360E18C013989B2E1848B
:10215C00DBE716F8013BF6E70220ECE70120EAE7A3
:10216C007047704708B50023406AC385C384FFF7E6
:10217C00F8FF08BD704790F8423007B5222B42D1CA
:10218C0081680268B1F5805F836A3FD101690029DB
:10219C003FD15268C2F3080223F8022B8362C38D2D
:1021AC00013B9BB2C385002B2DD10268D16821F075
:1021BC002001D160D16821F48071D160516921F086
:1021CC0001015161202280F842204363026B012AF5
:1021DC00026828D1036302F10C0353E8003F23F09B
:1021EC00100302F10C0C4CE800310029F3D11368F8
:1021FC00DB0605D501911368019353680193019B8C
:10220C00818DFFF7B7FF03B05DF804FB39B90169A5
:10221C0029B95268D2B21A70836A0133BEE7526888
:10222C0002F07F02F7E7FEF7DDFBECE7036873B51E
:10223C001A6804461607D9685D6908D1960668D5F0
:10224C008D0666D502B0BDE87040FFF794BF05F06F
:10225C00010001F4907505435BD0D60705D5CD057B
:10226C0042BF636C43F001036364530704D518B198
:10227C00636C43F002036364960704D518B1636C76
:10228C0043F004036364150707D501F020030343EF
:10229C001EBF636C43F008036364636C002B32D085
:1022AC00920604D58B0602D52046FFF764FF2668FC
:1022BC0020467369626C03F0400302F0080253EA93
:1022CC00020522D0FFF734FE73695E0618D522682A
:1022DC0002F1140353E8003F23F04003143242E8A8
:1022EC0000310029F3D1E06B50B1744B4363FFF71D
:1022FC0081F840B1E06B436B02B0BDE87040184709
:10230C002046FFF72EFF02B070BDFFF72AFF656471
:10231C00F9E7206B012840F09480D50640F19180BC
:10232C00C80640F18E80002201921A6801925A6808
:10233C000192019A5A6952064DD5E16B0A685268AE
:10234C0092B2002ADFD0A08D9042DCD9E2858A6956
:10235C00202A36D003F10C0252E8002F22F48072AE
:10236C0003F10C0040E800210029F3D103F1140221
:10237C0052E8002F22F0010203F1140040E8002182
:10238C000029F3D103F1140252E8002F22F040028D
:10239C0003F1140040E800210029F3D1202284F835
:1023AC004220216303F10C0252E8002F22F01002AC
:1023BC0003F10C0040E800210029F3D1E06BFEF79B
:1023CC00F9FF02236363E38DA18DC91A89B22046FC
:1023DC00FFF7D0FE97E7E28DE08DA18D80B292B22F
:1023EC00002890D0891A89B200298CD003F10C02F4
:1023FC0052E8002F22F4907203F10C0545E80020FE
:10240C000028F3D103F1140252E8002F22F001024C
:10241C0003F1140545E800200028F3D1202284F8AC
:10242C004220206303F10C0252E8002F22F010022C
:10243C0003F10C0545E800200028F3D10223636367
:10244C00C5E7160628D50D0626D594F84120212A75
:10245C007FF459AFA168226AB1F5805F17D1216969
:10246C00A9B932F8021BC1F3080159602262E28C4F
:10247C00013A92B2E284002A7FF445AFDA6822F086
:10248C008002DA60DA6842F04002DA603BE7511C05
:10249C00216212785A60EAE750067FF534AF4A069B
:1024AC007FF531AFDA68204622F04002DA60202353
:1024BC0084F84130FFF754FE25E700BF7121000876
:1024CC000023C285436422238285026980F842304E
:1024DC00816203681AB1DA6842F48072DA605A6970
:1024EC00002042F001025A61DA6842F02002DA6000
:1024FC00704770B490F84260202E06D141B13AB1C9
:10250C000024046370BCFFF7DBBF022070BC704773
:10251C000120FBE70EB46FF0004100B59CB01DAB81
:10252C0002900690079104910848094953F8042B2E
:10253C000591006802A9019300F092F90022029B18
:10254C001A701CB05DF804EB03B07047100000204B
:10255C000802FFFF03460244934200D1704703F880
:10256C00011BF9E7014B1868704700BF10000020F1
:10257C0070B500260C4D0D4C641BA410A64209D15D
:10258C0000F078FC00260A4D0A4C641BA410A642ED
:10259C0005D170BD55F8043B98470136EEE755F868
:1025AC00043B98470136F2E73C2F00083C2F00080B
:1025BC003C2F0008402F00087047704738B505467F
:1025CC00002940D051F8043C0C1F002BB8BFE41874
:1025DC0000F0DEF81C4A136833B9636014602846B7
:1025EC00BDE8384000F0DAB8A34208D920682118B9
:1025FC008B4201BF19685B6809182160EDE71A4628
:10260C005B680BB1A342FAD911685018A0420BD1E8
:10261C0020680144501883421160E0D118685B684F
:10262C00084410605360DAE702D90C232B60D6E71C
:10263C00206821188B4201BF19685B68091821605A
:10264C0063605460CBE738BD8C03002070B50F4E2F
:10265C000C463168054611B900F0AAFB30602146E2
:10266C00284600F0A5FB431C03D14FF0FF34204655
:10267C0070BDC41C24F00304A042F8D0211A2846D3
:10268C0000F096FB0130F2D1EFE700BF8803002089
:10269C002DE9F843CD1C25F0030508350C2D38BF6A
:1026AC000C25002D064601DBA94204D90C2333600E
:1026BC000020BDE8F883DFF8D48000F069F8D8F882
:1026CC0000301C4644BB29463046FFF7BFFF431C75
:1026DC00044658D1D8F800402746002F43D1002C8F
:1026EC004BD023683946304604EB030900F060FBFD
:1026FC00814542D1216830466D1A2946FFF7A6FF65
:10270C0001303AD023682B442360D8F800305A6843
:10271C0062BBC8F800700FE02268521B20D40B2A51
:10272C0017D96119A342256018BF5960636808BFA7
:10273C00C8F8001062514B60304600F02FF804F1DD
:10274C000B00231D20F00700C21A1CBF1B1AA3503C
:10275C00AFE76268A3420CBFC8F800205A60EBE7F1
:10276C0023466468AEE73C467F68B6E71A465B686A
:10277C00A342FBD100235360DEE70C2330463360C9
:10278C0000F00CF894E70560D6E700BF8C0300203E
:10279C000148FFF711BF00BF840300200148FFF779
:1027AC000CBF00BF840300202DE9F0471F468E6844
:1027BC008246BE420C4690460B682DD8B1F90C20CF
:1027CC0012F4906F26D06569096905EB4505A3EBFA
:1027DC00010905EBD5757B1C4B446D109D4238BF30
:1027EC001D46530527D52946FFF752FF064660B311
:1027FC004A46216900F0FAFAA38923F4906343F066
:10280C008003A38126614E4426603E466561A5EB9C
:10281C000905A560BE4200D93E46324641462068B5
:10282C0000F0ACFA0020A3689B1BA3602368334420
:10283C002360BDE8F0872A4600F0E6FA0646002839
:10284C00E0D150462169FFF7B9FE0C23CAF80030DD
:10285C00A3894FF0FF3043F04003A381E9E7000068
:10286C002DE9F04F98468B8907461B060D461446FA
:10287C009DB010D50B6973B94021FFF709FF286093
:10288C00286130B90C233B604FF0FF301DB0BDE820
:10289C00F08F40236B610023099320238DF829309E
:1028AC0030234FF00109CDF80C80DFF898818DF8BA
:1028BC002A3023469A4613F8012B0AB1252AF9D15E
:1028CC00BAEB040B0BD05B46224629463846FFF781
:1028DC006BFF013000F0A780099A5A4409929AF8CC
:1028EC000030002B00F09F8000234FF0FF32CDE929
:1028FC0005230AF1010A049307938DF853301A93B8
:10290C005446052214F8011B4E4800F061FA049A53
:10291C00D8B9D00644BF20238DF85330110744BFDB
:10292C002B238DF853309AF800302A2B15D05446AF
:10293C0000204FF00A0C079A214611F8013B303B5E
:10294C00092B4BD9B0B1079214E0A0EB080309FA9C
:10295C0003F31343A2460493D2E7039B191D1B6890
:10296C000391002BBBBF5B4242F00202079307931B
:10297C00B8BF049223782E2B0AD163782A2B32D13C
:10298C00039B02341A1D1B68039243EAE3730593FD
:10299C00DFF8B4A003225046217800F019FA38B1C0
:1029AC004022049BA0EB0A008240134301340493A1
:1029BC0014F8011B062225488DF8281000F008FA9F
:1029CC00002836D0224B1BBB039B073323F0070395
:1029DC0008330393099B334409936AE70C4601209F
:1029EC000CFB0232A8E700234FF00A0C1946013405
:1029FC000593204610F8012B303A092A03D9002BF5
:102A0C00C6D00591C4E7044601230CFB0121F0E775
:102A1C0003AB00932A4638460E4B04A9AFF3008053
:102A2C00421C0646D6D1AB895B063FF52DAF099803
:102A3C002CE703AB00932A463846064B04A900F05A
:102A4C007DF8EDE7002F0008062F00080A2F00087C
:102A5C0000000000B52700082DE9F04716469846FF
:102A6C008A680B6907469342B8BF1346336091F8E6
:102A7C0043200C46DDF820900AB101333360236803
:102A8C00990642BF336802333360256815F006059A
:102A9C0006D104F1190AE36832689B1AAB422BDCAD
:102AAC0094F843302268003B18BF0123920630D4BF
:102ABC004146384604F14302C847013023D023680D
:102ACC00226903F00603042B14BF002533684FF072
:102ADC00000608BFE56804F11A0408BFED1A54F8A3
:102AEC00123C08BF25EAE5759342C4BF9B1AED184A
:102AFC00B5421AD1002008E001235246414638461F
:102B0C00C847013003D14FF0FF30BDE8F0870135E5
:102B1C00C1E73020E11881F843005A1C94F84510A5
:102B2C002244023382F84310C2E701232246414675
:102B3C003846C8470130E6D00136D9E72DE9FF47C2
:102B4C000F7E9146782F80460C469A460C9E01F1DA
:102B5C00430207D8622F0AD8002F00F0D380582FD9
:102B6C0000F0BA8004F1420684F842703AE0A7F112
:102B7C006303152BF6D801A151F823F0E12B0008C3
:102B8C00F52B0008712B0008712B0008712B000825
:102B9C00712B0008F52B0008712B0008712B000815
:102BAC00712B0008712B0008F72C00081F2C000853
:102BBC00B12C0008712B0008712B0008192D00088E
:102BCC00712B00081F2C0008712B0008712B0008BA
:102BDC00B92C000833681A1D1B68326004F14206D8
:102BEC0084F8423001239EE033682068191D31605F
:102BFC00060601D51D6803E04506FBD5B3F9005068
:102C0C00002D03DA2D236D4284F843300A235948F2
:102C1C0011E021683368080653F8045B02D44906B6
:102C2C0048BFADB26F2F336014BF0A23082351483D
:102C3C00002184F843106668002EA8BF2168A660A6
:102C4C00A4BF21F0040121600DB9002E4BD0164613
:102C5C00B5FBF3F103FB1157C75D06F8017D2F4659
:102C6C00BB420D46F4D9082B0BD12368DF0708D5DE
:102C7C00236961689942DEBF302306F8013C06F1F6
:102C8C00FF36921B22614B4621464046CDF800A0F0
:102C9C0003AAFFF7E1FE01304AD14FF0FF3004B038
:102CAC00BDE8F087236843F020032360782732487F
:102CBC0084F84570236831681F0651F8045B02D410
:102CCC005F0648BFADB23160D90744BF43F0200363
:102CDC0023601DB11023ABE72648E9E7236823F0F6
:102CEC0020032360F6E71646BDE733682568181DF8
:102CFC00616930602E061B6801D5196002E0680618
:102D0C00FBD51980002316462361BCE733680021EC
:102D1C001A1D32601E686268304600F059F808B11E
:102D2C00801B606063682361002384F84330AAE74A
:102D3C003246494640462369D0470130ADD023681E
:102D4C009B0713D4E068039B9842B8BF1846A6E7CC
:102D5C000123324649464046D04701309DD00135CB
:102D6C00E36803995B1AAB42F2DCEBE7002504F154
:102D7C001906F5E7112F0008222F0008884210B51C
:102D8C0001EB020402D98442234607D8431EA14218
:102D9C0008D011F8012B03F8012FF8E70146024483
:102DAC008A4200D110BD13F8014D02F8014DF7E72E
:102DBC0038B50023054D044608462B60FDF708FF87
:102DCC00431C02D12B6803B1236038BD8003002063
:102DDC00034610B5C9B202449342184601D10020F3
:102DEC0003E0047801338C42F6D110BD0A449142C1
:102DFC0000F1FF3300D1704710B511F8014B91422F
:102E0C0003F8014FF9D110BD2DE9F041804615466C
:102E1C000C4621B91146BDE8F041FFF739BC2AB97F
:102E2C00FFF7CCFB00242046BDE8F08100F01AF837
:102E3C008542064602D8B5EB500FF4D829464046D9
:102E4C00FFF726FC07460028ECD0B5422A4621465F
:102E5C0028BF3246FFF7CAFF21464046FFF7AEFBBC
:102E6C003C46E0E751F8043C181F002BBCBF0B5844
:102E7C00C0187047F8B500BFF8BC08BC9E46704738
:0C2E8C00F8B500BFF8BC08BC9E467047BB
:102E980050532569256925692569256925692569A5
:102EA800256925690A002534692C202534692C20D8
:102EB8002534692C202534692C202534692C2025BB
:102EC80034692C202534692C202534690A00000037
:102ED80000000102030400000000000000000102DD
:102EE8000304060708090102020304050607080986
:102EF8000A0B0C0D0E0F1010232D302B2000686CC0
:102F08004C00656667454647003031323334353604
:102F1800373839414243444546003031323334353D
:0C2F28003637383961626364656600006A
:082F340018D2FF7F010000002C
:042F3C003101000857
:042F40000D01000877
:102F4400960000200024F40001000000100000009E
:102F5400140000200000000048020020B0020020FD
:102F64001803002000000000000000000000000022
:102F7400000000000000000000000000000000004D
:102F8400000000000000000000000000000000003D
:102F9400000000000000000000000000000000002D
:0400000508000C21C2
:00000001FF
